{
  "contractName": "Token",
  "abi": [
    {
      "inputs": [
        {
          "internalType": "string",
          "name": "name",
          "type": "string"
        },
        {
          "internalType": "string",
          "name": "symbol",
          "type": "string"
        }
      ],
      "stateMutability": "nonpayable",
      "type": "constructor"
    },
    {
      "anonymous": false,
      "inputs": [
        {
          "indexed": true,
          "internalType": "address",
          "name": "owner",
          "type": "address"
        },
        {
          "indexed": true,
          "internalType": "address",
          "name": "approved",
          "type": "address"
        },
        {
          "indexed": true,
          "internalType": "uint256",
          "name": "tokenId",
          "type": "uint256"
        }
      ],
      "name": "Approval",
      "type": "event"
    },
    {
      "anonymous": false,
      "inputs": [
        {
          "indexed": true,
          "internalType": "address",
          "name": "owner",
          "type": "address"
        },
        {
          "indexed": true,
          "internalType": "address",
          "name": "operator",
          "type": "address"
        },
        {
          "indexed": false,
          "internalType": "bool",
          "name": "approved",
          "type": "bool"
        }
      ],
      "name": "ApprovalForAll",
      "type": "event"
    },
    {
      "anonymous": false,
      "inputs": [
        {
          "indexed": true,
          "internalType": "address",
          "name": "previousOwner",
          "type": "address"
        },
        {
          "indexed": true,
          "internalType": "address",
          "name": "newOwner",
          "type": "address"
        }
      ],
      "name": "OwnershipTransferred",
      "type": "event"
    },
    {
      "anonymous": false,
      "inputs": [
        {
          "indexed": true,
          "internalType": "address",
          "name": "from",
          "type": "address"
        },
        {
          "indexed": true,
          "internalType": "address",
          "name": "to",
          "type": "address"
        },
        {
          "indexed": true,
          "internalType": "uint256",
          "name": "tokenId",
          "type": "uint256"
        }
      ],
      "name": "Transfer",
      "type": "event"
    },
    {
      "inputs": [
        {
          "internalType": "address",
          "name": "to",
          "type": "address"
        },
        {
          "internalType": "uint256",
          "name": "tokenId",
          "type": "uint256"
        }
      ],
      "name": "approve",
      "outputs": [],
      "stateMutability": "nonpayable",
      "type": "function"
    },
    {
      "inputs": [
        {
          "internalType": "address",
          "name": "owner",
          "type": "address"
        }
      ],
      "name": "balanceOf",
      "outputs": [
        {
          "internalType": "uint256",
          "name": "",
          "type": "uint256"
        }
      ],
      "stateMutability": "view",
      "type": "function"
    },
    {
      "inputs": [
        {
          "internalType": "uint256",
          "name": "tokenId",
          "type": "uint256"
        }
      ],
      "name": "getApproved",
      "outputs": [
        {
          "internalType": "address",
          "name": "",
          "type": "address"
        }
      ],
      "stateMutability": "view",
      "type": "function"
    },
    {
      "inputs": [
        {
          "internalType": "address",
          "name": "owner",
          "type": "address"
        },
        {
          "internalType": "address",
          "name": "operator",
          "type": "address"
        }
      ],
      "name": "isApprovedForAll",
      "outputs": [
        {
          "internalType": "bool",
          "name": "",
          "type": "bool"
        }
      ],
      "stateMutability": "view",
      "type": "function"
    },
    {
      "inputs": [],
      "name": "name",
      "outputs": [
        {
          "internalType": "string",
          "name": "",
          "type": "string"
        }
      ],
      "stateMutability": "view",
      "type": "function"
    },
    {
      "inputs": [],
      "name": "owner",
      "outputs": [
        {
          "internalType": "address",
          "name": "",
          "type": "address"
        }
      ],
      "stateMutability": "view",
      "type": "function"
    },
    {
      "inputs": [
        {
          "internalType": "uint256",
          "name": "tokenId",
          "type": "uint256"
        }
      ],
      "name": "ownerOf",
      "outputs": [
        {
          "internalType": "address",
          "name": "",
          "type": "address"
        }
      ],
      "stateMutability": "view",
      "type": "function"
    },
    {
      "inputs": [],
      "name": "renounceOwnership",
      "outputs": [],
      "stateMutability": "nonpayable",
      "type": "function"
    },
    {
      "inputs": [
        {
          "internalType": "address",
          "name": "from",
          "type": "address"
        },
        {
          "internalType": "address",
          "name": "to",
          "type": "address"
        },
        {
          "internalType": "uint256",
          "name": "tokenId",
          "type": "uint256"
        }
      ],
      "name": "safeTransferFrom",
      "outputs": [],
      "stateMutability": "nonpayable",
      "type": "function"
    },
    {
      "inputs": [
        {
          "internalType": "address",
          "name": "from",
          "type": "address"
        },
        {
          "internalType": "address",
          "name": "to",
          "type": "address"
        },
        {
          "internalType": "uint256",
          "name": "tokenId",
          "type": "uint256"
        },
        {
          "internalType": "bytes",
          "name": "_data",
          "type": "bytes"
        }
      ],
      "name": "safeTransferFrom",
      "outputs": [],
      "stateMutability": "nonpayable",
      "type": "function"
    },
    {
      "inputs": [
        {
          "internalType": "address",
          "name": "operator",
          "type": "address"
        },
        {
          "internalType": "bool",
          "name": "approved",
          "type": "bool"
        }
      ],
      "name": "setApprovalForAll",
      "outputs": [],
      "stateMutability": "nonpayable",
      "type": "function"
    },
    {
      "inputs": [
        {
          "internalType": "bytes4",
          "name": "interfaceId",
          "type": "bytes4"
        }
      ],
      "name": "supportsInterface",
      "outputs": [
        {
          "internalType": "bool",
          "name": "",
          "type": "bool"
        }
      ],
      "stateMutability": "view",
      "type": "function"
    },
    {
      "inputs": [],
      "name": "symbol",
      "outputs": [
        {
          "internalType": "string",
          "name": "",
          "type": "string"
        }
      ],
      "stateMutability": "view",
      "type": "function"
    },
    {
      "inputs": [
        {
          "internalType": "uint256",
          "name": "tokenId",
          "type": "uint256"
        }
      ],
      "name": "tokenURI",
      "outputs": [
        {
          "internalType": "string",
          "name": "",
          "type": "string"
        }
      ],
      "stateMutability": "view",
      "type": "function"
    },
    {
      "inputs": [
        {
          "internalType": "address",
          "name": "from",
          "type": "address"
        },
        {
          "internalType": "address",
          "name": "to",
          "type": "address"
        },
        {
          "internalType": "uint256",
          "name": "tokenId",
          "type": "uint256"
        }
      ],
      "name": "transferFrom",
      "outputs": [],
      "stateMutability": "nonpayable",
      "type": "function"
    },
    {
      "inputs": [
        {
          "internalType": "address",
          "name": "newOwner",
          "type": "address"
        }
      ],
      "name": "transferOwnership",
      "outputs": [],
      "stateMutability": "nonpayable",
      "type": "function"
    },
    {
      "inputs": [
        {
          "internalType": "uint256",
          "name": "tokenId",
          "type": "uint256"
        }
      ],
      "name": "getTokenDetails",
      "outputs": [
        {
          "components": [
            {
              "internalType": "uint8",
              "name": "damage",
              "type": "uint8"
            },
            {
              "internalType": "uint8",
              "name": "magic",
              "type": "uint8"
            },
            {
              "internalType": "uint256",
              "name": "lastMeal",
              "type": "uint256"
            },
            {
              "internalType": "uint256",
              "name": "endurance",
              "type": "uint256"
            }
          ],
          "internalType": "struct Token.Pet",
          "name": "",
          "type": "tuple"
        }
      ],
      "stateMutability": "view",
      "type": "function"
    },
    {
      "inputs": [
        {
          "internalType": "uint8",
          "name": "damage",
          "type": "uint8"
        },
        {
          "internalType": "uint8",
          "name": "magic",
          "type": "uint8"
        },
        {
          "internalType": "uint256",
          "name": "endurance",
          "type": "uint256"
        }
      ],
      "name": "mint",
      "outputs": [],
      "stateMutability": "nonpayable",
      "type": "function"
    },
    {
      "inputs": [
        {
          "internalType": "uint256",
          "name": "tokenId",
          "type": "uint256"
        }
      ],
      "name": "feed",
      "outputs": [],
      "stateMutability": "nonpayable",
      "type": "function"
    }
  ],
  "bytecode": "0x608060405260006007553480156200001657600080fd5b50604051620032813803806200328183398181016040528101906200003c919062000255565b818181600090805190602001906200005692919062000133565b5080600190805190602001906200006f92919062000133565b5050506000620000846200012b60201b60201c565b905080600660006101000a81548173ffffffffffffffffffffffffffffffffffffffff021916908373ffffffffffffffffffffffffffffffffffffffff1602179055508073ffffffffffffffffffffffffffffffffffffffff16600073ffffffffffffffffffffffffffffffffffffffff167f8be0079c531659141344cd1fd0a4f28419497f9722a3daafe3b4186f6b6457e060405160405180910390a3505050620003f9565b600033905090565b828054620001419062000365565b90600052602060002090601f016020900481019282620001655760008555620001b1565b82601f106200018057805160ff1916838001178555620001b1565b82800160010185558215620001b1579182015b82811115620001b057825182559160200191906001019062000193565b5b509050620001c09190620001c4565b5090565b5b80821115620001df576000816000905550600101620001c5565b5090565b6000620001fa620001f484620002fc565b620002c8565b9050828152602081018484840111156200021357600080fd5b620002208482856200032f565b509392505050565b600082601f8301126200023a57600080fd5b81516200024c848260208601620001e3565b91505092915050565b600080604083850312156200026957600080fd5b600083015167ffffffffffffffff8111156200028457600080fd5b620002928582860162000228565b925050602083015167ffffffffffffffff811115620002b057600080fd5b620002be8582860162000228565b9150509250929050565b6000604051905081810181811067ffffffffffffffff82111715620002f257620002f1620003ca565b5b8060405250919050565b600067ffffffffffffffff8211156200031a5762000319620003ca565b5b601f19601f8301169050602081019050919050565b60005b838110156200034f57808201518184015260208101905062000332565b838111156200035f576000848401525b50505050565b600060028204905060018216806200037e57607f821691505b602082108114156200039557620003946200039b565b5b50919050565b7f4e487b7100000000000000000000000000000000000000000000000000000000600052602260045260246000fd5b7f4e487b7100000000000000000000000000000000000000000000000000000000600052604160045260246000fd5b612e7880620004096000396000f3fe608060405234801561001057600080fd5b50600436106101215760003560e01c80638da5cb5b116100ad578063c87b56dd11610071578063c87b56dd14610306578063e985e9c514610336578063eb22ed3214610366578063f2fde38b14610382578063f59dfdfb1461039e57610121565b80638da5cb5b1461026257806395d89b4114610280578063a22cb4651461029e578063b88d4fde146102ba578063c1e03728146102d657610121565b806323b872dd116100f457806323b872dd146101c057806342842e0e146101dc5780636352211e146101f857806370a0823114610228578063715018a61461025857610121565b806301ffc9a71461012657806306fdde0314610156578063081812fc14610174578063095ea7b3146101a4575b600080fd5b610140600480360381019061013b9190611f61565b6103ba565b60405161014d91906127c1565b60405180910390f35b61015e61049c565b60405161016b91906127dc565b60405180910390f35b61018e60048036038101906101899190611fb3565b61052e565b60405161019b919061275a565b60405180910390f35b6101be60048036038101906101b99190611f25565b6105b3565b005b6101da60048036038101906101d59190611e1f565b6106cb565b005b6101f660048036038101906101f19190611e1f565b61072b565b005b610212600480360381019061020d9190611fb3565b61074b565b60405161021f919061275a565b60405180910390f35b610242600480360381019061023d9190611dba565b6107fd565b60405161024f9190612a19565b60405180910390f35b6102606108b5565b005b61026a6109f2565b604051610277919061275a565b60405180910390f35b610288610a1c565b60405161029591906127dc565b60405180910390f35b6102b860048036038101906102b39190611ee9565b610aae565b005b6102d460048036038101906102cf9190611e6e565b610c2f565b005b6102f060048036038101906102eb9190611fb3565b610c91565b6040516102fd91906129fe565b60405180910390f35b610320600480360381019061031b9190611fb3565b610d0c565b60405161032d91906127dc565b60405180910390f35b610350600480360381019061034b9190611de3565b610db3565b60405161035d91906127c1565b60405180910390f35b610380600480360381019061037b9190611fdc565b610e47565b005b61039c60048036038101906103979190611dba565b610f81565b005b6103b860048036038101906103b39190611fb3565b61112d565b005b60007f80ac58cd000000000000000000000000000000000000000000000000000000007bffffffffffffffffffffffffffffffffffffffffffffffffffffffff1916827bffffffffffffffffffffffffffffffffffffffffffffffffffffffff1916148061048557507f5b5e139f000000000000000000000000000000000000000000000000000000007bffffffffffffffffffffffffffffffffffffffffffffffffffffffff1916827bffffffffffffffffffffffffffffffffffffffffffffffffffffffff1916145b80610495575061049482611186565b5b9050919050565b6060600080546104ab90612c56565b80601f01602080910402602001604051908101604052809291908181526020018280546104d790612c56565b80156105245780601f106104f957610100808354040283529160200191610524565b820191906000526020600020905b81548152906001019060200180831161050757829003601f168201915b5050505050905090565b6000610539826111f0565b610578576040517f08c379a000000000000000000000000000000000000000000000000000000000815260040161056f9061293e565b60405180910390fd5b6004600083815260200190815260200160002060009054906101000a900473ffffffffffffffffffffffffffffffffffffffff169050919050565b60006105be8261074b565b90508073ffffffffffffffffffffffffffffffffffffffff168373ffffffffffffffffffffffffffffffffffffffff16141561062f576040517f08c379a0000000000000000000000000000000000000000000000000000000008152600401610626906129be565b60405180910390fd5b8073ffffffffffffffffffffffffffffffffffffffff1661064e61125c565b73ffffffffffffffffffffffffffffffffffffffff16148061067d575061067c8161067761125c565b610db3565b5b6106bc576040517f08c379a00000000000000000000000000000000000000000000000000000000081526004016106b3906128be565b60405180910390fd5b6106c68383611264565b505050565b6106dc6106d661125c565b8261131d565b61071b576040517f08c379a0000000000000000000000000000000000000000000000000000000008152600401610712906129de565b60405180910390fd5b6107268383836113fb565b505050565b61074683838360405180602001604052806000815250610c2f565b505050565b6000806002600084815260200190815260200160002060009054906101000a900473ffffffffffffffffffffffffffffffffffffffff169050600073ffffffffffffffffffffffffffffffffffffffff168173ffffffffffffffffffffffffffffffffffffffff1614156107f4576040517f08c379a00000000000000000000000000000000000000000000000000000000081526004016107eb906128fe565b60405180910390fd5b80915050919050565b60008073ffffffffffffffffffffffffffffffffffffffff168273ffffffffffffffffffffffffffffffffffffffff16141561086e576040517f08c379a0000000000000000000000000000000000000000000000000000000008152600401610865906128de565b60405180910390fd5b600360008373ffffffffffffffffffffffffffffffffffffffff1673ffffffffffffffffffffffffffffffffffffffff168152602001908152602001600020549050919050565b6108bd61125c565b73ffffffffffffffffffffffffffffffffffffffff166108db6109f2565b73ffffffffffffffffffffffffffffffffffffffff1614610931576040517f08c379a00000000000000000000000000000000000000000000000000000000081526004016109289061295e565b60405180910390fd5b600073ffffffffffffffffffffffffffffffffffffffff16600660009054906101000a900473ffffffffffffffffffffffffffffffffffffffff1673ffffffffffffffffffffffffffffffffffffffff167f8be0079c531659141344cd1fd0a4f28419497f9722a3daafe3b4186f6b6457e060405160405180910390a36000600660006101000a81548173ffffffffffffffffffffffffffffffffffffffff021916908373ffffffffffffffffffffffffffffffffffffffff160217905550565b6000600660009054906101000a900473ffffffffffffffffffffffffffffffffffffffff16905090565b606060018054610a2b90612c56565b80601f0160208091040260200160405190810160405280929190818152602001828054610a5790612c56565b8015610aa45780601f10610a7957610100808354040283529160200191610aa4565b820191906000526020600020905b815481529060010190602001808311610a8757829003601f168201915b5050505050905090565b610ab661125c565b73ffffffffffffffffffffffffffffffffffffffff168273ffffffffffffffffffffffffffffffffffffffff161415610b24576040517f08c379a0000000000000000000000000000000000000000000000000000000008152600401610b1b9061287e565b60405180910390fd5b8060056000610b3161125c565b73ffffffffffffffffffffffffffffffffffffffff1673ffffffffffffffffffffffffffffffffffffffff16815260200190815260200160002060008473ffffffffffffffffffffffffffffffffffffffff1673ffffffffffffffffffffffffffffffffffffffff16815260200190815260200160002060006101000a81548160ff0219169083151502179055508173ffffffffffffffffffffffffffffffffffffffff16610bde61125c565b73ffffffffffffffffffffffffffffffffffffffff167f17307eab39ab6107e8899845ad3d59bd9653f200f220920489ca2b5937696c3183604051610c2391906127c1565b60405180910390a35050565b610c40610c3a61125c565b8361131d565b610c7f576040517f08c379a0000000000000000000000000000000000000000000000000000000008152600401610c76906129de565b60405180910390fd5b610c8b84848484611657565b50505050565b610c99611ca6565b600860008381526020019081526020016000206040518060800160405290816000820160009054906101000a900460ff1660ff1660ff1681526020016000820160019054906101000a900460ff1660ff1660ff168152602001600182015481526020016002820154815250509050919050565b6060610d17826111f0565b610d56576040517f08c379a0000000000000000000000000000000000000000000000000000000008152600401610d4d9061299e565b60405180910390fd5b6000610d606116b3565b90506000815111610d805760405180602001604052806000815250610dab565b80610d8a846116ca565b604051602001610d9b929190612736565b6040516020818303038152906040525b915050919050565b6000600560008473ffffffffffffffffffffffffffffffffffffffff1673ffffffffffffffffffffffffffffffffffffffff16815260200190815260200160002060008373ffffffffffffffffffffffffffffffffffffffff1673ffffffffffffffffffffffffffffffffffffffff16815260200190815260200160002060009054906101000a900460ff16905092915050565b610e4f61125c565b73ffffffffffffffffffffffffffffffffffffffff16610e6d6109f2565b73ffffffffffffffffffffffffffffffffffffffff1614610ec3576040517f08c379a0000000000000000000000000000000000000000000000000000000008152600401610eba9061295e565b60405180910390fd5b60405180608001604052808460ff1681526020018360ff1681526020014281526020018281525060086000600754815260200190815260200160002060008201518160000160006101000a81548160ff021916908360ff16021790555060208201518160000160016101000a81548160ff021916908360ff1602179055506040820151816001015560608201518160020155905050610f6433600754611877565b60076000815480929190610f7790612c88565b9190505550505050565b610f8961125c565b73ffffffffffffffffffffffffffffffffffffffff16610fa76109f2565b73ffffffffffffffffffffffffffffffffffffffff1614610ffd576040517f08c379a0000000000000000000000000000000000000000000000000000000008152600401610ff49061295e565b60405180910390fd5b600073ffffffffffffffffffffffffffffffffffffffff168173ffffffffffffffffffffffffffffffffffffffff16141561106d576040517f08c379a00000000000000000000000000000000000000000000000000000000081526004016110649061281e565b60405180910390fd5b8073ffffffffffffffffffffffffffffffffffffffff16600660009054906101000a900473ffffffffffffffffffffffffffffffffffffffff1673ffffffffffffffffffffffffffffffffffffffff167f8be0079c531659141344cd1fd0a4f28419497f9722a3daafe3b4186f6b6457e060405160405180910390a380600660006101000a81548173ffffffffffffffffffffffffffffffffffffffff021916908373ffffffffffffffffffffffffffffffffffffffff16021790555050565b60006008600060075481526020019081526020016000209050428160020154826001015461115b9190612ad8565b1161116557600080fd5b42600860006007548152602001908152602001600020600101819055505050565b60007f01ffc9a7000000000000000000000000000000000000000000000000000000007bffffffffffffffffffffffffffffffffffffffffffffffffffffffff1916827bffffffffffffffffffffffffffffffffffffffffffffffffffffffff1916149050919050565b60008073ffffffffffffffffffffffffffffffffffffffff166002600084815260200190815260200160002060009054906101000a900473ffffffffffffffffffffffffffffffffffffffff1673ffffffffffffffffffffffffffffffffffffffff1614159050919050565b600033905090565b816004600083815260200190815260200160002060006101000a81548173ffffffffffffffffffffffffffffffffffffffff021916908373ffffffffffffffffffffffffffffffffffffffff160217905550808273ffffffffffffffffffffffffffffffffffffffff166112d78361074b565b73ffffffffffffffffffffffffffffffffffffffff167f8c5be1e5ebec7d5bd14f71427d1e84f3dd0314c0f7b2291e5b200ac8c7c3b92560405160405180910390a45050565b6000611328826111f0565b611367576040517f08c379a000000000000000000000000000000000000000000000000000000000815260040161135e9061289e565b60405180910390fd5b60006113728361074b565b90508073ffffffffffffffffffffffffffffffffffffffff168473ffffffffffffffffffffffffffffffffffffffff1614806113e157508373ffffffffffffffffffffffffffffffffffffffff166113c98461052e565b73ffffffffffffffffffffffffffffffffffffffff16145b806113f257506113f18185610db3565b5b91505092915050565b8273ffffffffffffffffffffffffffffffffffffffff1661141b8261074b565b73ffffffffffffffffffffffffffffffffffffffff1614611471576040517f08c379a00000000000000000000000000000000000000000000000000000000081526004016114689061297e565b60405180910390fd5b600073ffffffffffffffffffffffffffffffffffffffff168273ffffffffffffffffffffffffffffffffffffffff1614156114e1576040517f08c379a00000000000000000000000000000000000000000000000000000000081526004016114d89061285e565b60405180910390fd5b6114ec838383611895565b6114f7600082611264565b6001600360008573ffffffffffffffffffffffffffffffffffffffff1673ffffffffffffffffffffffffffffffffffffffff16815260200190815260200160002060008282546115479190612b5f565b925050819055506001600360008473ffffffffffffffffffffffffffffffffffffffff1673ffffffffffffffffffffffffffffffffffffffff168152602001908152602001600020600082825461159e9190612ad8565b92505081905550816002600083815260200190815260200160002060006101000a81548173ffffffffffffffffffffffffffffffffffffffff021916908373ffffffffffffffffffffffffffffffffffffffff160217905550808273ffffffffffffffffffffffffffffffffffffffff168473ffffffffffffffffffffffffffffffffffffffff167fddf252ad1be2c89b69c2b068fc378daa952ba7f163c4a11628f55a4df523b3ef60405160405180910390a4505050565b6116628484846113fb565b61166e848484846118d3565b6116ad576040517f08c379a00000000000000000000000000000000000000000000000000000000081526004016116a4906127fe565b60405180910390fd5b50505050565b606060405180602001604052806000815250905090565b60606000821415611712576040518060400160405280600181526020017f30000000000000000000000000000000000000000000000000000000000000008152509050611872565b600082905060005b6000821461174457808061172d90612c88565b915050600a8261173d9190612b2e565b915061171a565b60008167ffffffffffffffff811115611786577f4e487b7100000000000000000000000000000000000000000000000000000000600052604160045260246000fd5b6040519080825280601f01601f1916602001820160405280156117b85781602001600182028036833780820191505090505b5090505b6000851461186b576001826117d19190612b5f565b9150600a856117e09190612cd1565b60306117ec9190612ad8565b60f81b818381518110611828577f4e487b7100000000000000000000000000000000000000000000000000000000600052603260045260246000fd5b60200101907effffffffffffffffffffffffffffffffffffffffffffffffffffffffffffff1916908160001a905350600a856118649190612b2e565b94506117bc565b8093505050505b919050565b611891828260405180602001604052806000815250611a6a565b5050565b6000600860006007548152602001908152602001600020905042816002015482600101546118c39190612ad8565b116118cd57600080fd5b50505050565b60006118f48473ffffffffffffffffffffffffffffffffffffffff16611ac5565b15611a5d578373ffffffffffffffffffffffffffffffffffffffff1663150b7a0261191d61125c565b8786866040518563ffffffff1660e01b815260040161193f9493929190612775565b602060405180830381600087803b15801561195957600080fd5b505af192505050801561198a57506040513d601f19601f820116820180604052508101906119879190611f8a565b60015b611a0d573d80600081146119ba576040519150601f19603f3d011682016040523d82523d6000602084013e6119bf565b606091505b50600081511415611a05576040517f08c379a00000000000000000000000000000000000000000000000000000000081526004016119fc906127fe565b60405180910390fd5b805181602001fd5b63150b7a0260e01b7bffffffffffffffffffffffffffffffffffffffffffffffffffffffff1916817bffffffffffffffffffffffffffffffffffffffffffffffffffffffff191614915050611a62565b600190505b949350505050565b611a748383611ad8565b611a8160008484846118d3565b611ac0576040517f08c379a0000000000000000000000000000000000000000000000000000000008152600401611ab7906127fe565b60405180910390fd5b505050565b600080823b905060008111915050919050565b600073ffffffffffffffffffffffffffffffffffffffff168273ffffffffffffffffffffffffffffffffffffffff161415611b48576040517f08c379a0000000000000000000000000000000000000000000000000000000008152600401611b3f9061291e565b60405180910390fd5b611b51816111f0565b15611b91576040517f08c379a0000000000000000000000000000000000000000000000000000000008152600401611b889061283e565b60405180910390fd5b611b9d60008383611895565b6001600360008473ffffffffffffffffffffffffffffffffffffffff1673ffffffffffffffffffffffffffffffffffffffff1681526020019081526020016000206000828254611bed9190612ad8565b92505081905550816002600083815260200190815260200160002060006101000a81548173ffffffffffffffffffffffffffffffffffffffff021916908373ffffffffffffffffffffffffffffffffffffffff160217905550808273ffffffffffffffffffffffffffffffffffffffff16600073ffffffffffffffffffffffffffffffffffffffff167fddf252ad1be2c89b69c2b068fc378daa952ba7f163c4a11628f55a4df523b3ef60405160405180910390a45050565b6040518060800160405280600060ff168152602001600060ff16815260200160008152602001600081525090565b6000611ce7611ce284612a65565b612a34565b905082815260208101848484011115611cff57600080fd5b611d0a848285612c14565b509392505050565b600081359050611d2181612dcf565b92915050565b600081359050611d3681612de6565b92915050565b600081359050611d4b81612dfd565b92915050565b600081519050611d6081612dfd565b92915050565b600082601f830112611d7757600080fd5b8135611d87848260208601611cd4565b91505092915050565b600081359050611d9f81612e14565b92915050565b600081359050611db481612e2b565b92915050565b600060208284031215611dcc57600080fd5b6000611dda84828501611d12565b91505092915050565b60008060408385031215611df657600080fd5b6000611e0485828601611d12565b9250506020611e1585828601611d12565b9150509250929050565b600080600060608486031215611e3457600080fd5b6000611e4286828701611d12565b9350506020611e5386828701611d12565b9250506040611e6486828701611d90565b9150509250925092565b60008060008060808587031215611e8457600080fd5b6000611e9287828801611d12565b9450506020611ea387828801611d12565b9350506040611eb487828801611d90565b925050606085013567ffffffffffffffff811115611ed157600080fd5b611edd87828801611d66565b91505092959194509250565b60008060408385031215611efc57600080fd5b6000611f0a85828601611d12565b9250506020611f1b85828601611d27565b9150509250929050565b60008060408385031215611f3857600080fd5b6000611f4685828601611d12565b9250506020611f5785828601611d90565b9150509250929050565b600060208284031215611f7357600080fd5b6000611f8184828501611d3c565b91505092915050565b600060208284031215611f9c57600080fd5b6000611faa84828501611d51565b91505092915050565b600060208284031215611fc557600080fd5b6000611fd384828501611d90565b91505092915050565b600080600060608486031215611ff157600080fd5b6000611fff86828701611da5565b935050602061201086828701611da5565b925050604061202186828701611d90565b9150509250925092565b61203481612b93565b82525050565b61204381612ba5565b82525050565b600061205482612a95565b61205e8185612aab565b935061206e818560208601612c23565b61207781612dbe565b840191505092915050565b600061208d82612aa0565b6120978185612abc565b93506120a7818560208601612c23565b6120b081612dbe565b840191505092915050565b60006120c682612aa0565b6120d08185612acd565b93506120e0818560208601612c23565b80840191505092915050565b60006120f9603283612abc565b91507f4552433732313a207472616e7366657220746f206e6f6e20455243373231526560008301527f63656976657220696d706c656d656e74657200000000000000000000000000006020830152604082019050919050565b600061215f602683612abc565b91507f4f776e61626c653a206e6577206f776e657220697320746865207a65726f206160008301527f64647265737300000000000000000000000000000000000000000000000000006020830152604082019050919050565b60006121c5601c83612abc565b91507f4552433732313a20746f6b656e20616c7265616479206d696e746564000000006000830152602082019050919050565b6000612205602483612abc565b91507f4552433732313a207472616e7366657220746f20746865207a65726f2061646460008301527f72657373000000000000000000000000000000000000000000000000000000006020830152604082019050919050565b600061226b601983612abc565b91507f4552433732313a20617070726f766520746f2063616c6c6572000000000000006000830152602082019050919050565b60006122ab602c83612abc565b91507f4552433732313a206f70657261746f7220717565727920666f72206e6f6e657860008301527f697374656e7420746f6b656e00000000000000000000000000000000000000006020830152604082019050919050565b6000612311603883612abc565b91507f4552433732313a20617070726f76652063616c6c6572206973206e6f74206f7760008301527f6e6572206e6f7220617070726f76656420666f7220616c6c00000000000000006020830152604082019050919050565b6000612377602a83612abc565b91507f4552433732313a2062616c616e636520717565727920666f7220746865207a6560008301527f726f2061646472657373000000000000000000000000000000000000000000006020830152604082019050919050565b60006123dd602983612abc565b91507f4552433732313a206f776e657220717565727920666f72206e6f6e657869737460008301527f656e7420746f6b656e00000000000000000000000000000000000000000000006020830152604082019050919050565b6000612443602083612abc565b91507f4552433732313a206d696e7420746f20746865207a65726f20616464726573736000830152602082019050919050565b6000612483602c83612abc565b91507f4552433732313a20617070726f76656420717565727920666f72206e6f6e657860008301527f697374656e7420746f6b656e00000000000000000000000000000000000000006020830152604082019050919050565b60006124e9602083612abc565b91507f4f776e61626c653a2063616c6c6572206973206e6f7420746865206f776e65726000830152602082019050919050565b6000612529602983612abc565b91507f4552433732313a207472616e73666572206f6620746f6b656e2074686174206960008301527f73206e6f74206f776e00000000000000000000000000000000000000000000006020830152604082019050919050565b600061258f602f83612abc565b91507f4552433732314d657461646174613a2055524920717565727920666f72206e6f60008301527f6e6578697374656e7420746f6b656e00000000000000000000000000000000006020830152604082019050919050565b60006125f5602183612abc565b91507f4552433732313a20617070726f76616c20746f2063757272656e74206f776e6560008301527f72000000000000000000000000000000000000000000000000000000000000006020830152604082019050919050565b600061265b603183612abc565b91507f4552433732313a207472616e736665722063616c6c6572206973206e6f74206f60008301527f776e6572206e6f7220617070726f7665640000000000000000000000000000006020830152604082019050919050565b6080820160008201516126ca6000850182612727565b5060208201516126dd6020850182612727565b5060408201516126f06040850182612709565b5060608201516127036060850182612709565b50505050565b61271281612bfd565b82525050565b61272181612bfd565b82525050565b61273081612c07565b82525050565b600061274282856120bb565b915061274e82846120bb565b91508190509392505050565b600060208201905061276f600083018461202b565b92915050565b600060808201905061278a600083018761202b565b612797602083018661202b565b6127a46040830185612718565b81810360608301526127b68184612049565b905095945050505050565b60006020820190506127d6600083018461203a565b92915050565b600060208201905081810360008301526127f68184612082565b905092915050565b60006020820190508181036000830152612817816120ec565b9050919050565b6000602082019050818103600083015261283781612152565b9050919050565b60006020820190508181036000830152612857816121b8565b9050919050565b60006020820190508181036000830152612877816121f8565b9050919050565b600060208201905081810360008301526128978161225e565b9050919050565b600060208201905081810360008301526128b78161229e565b9050919050565b600060208201905081810360008301526128d781612304565b9050919050565b600060208201905081810360008301526128f78161236a565b9050919050565b60006020820190508181036000830152612917816123d0565b9050919050565b6000602082019050818103600083015261293781612436565b9050919050565b6000602082019050818103600083015261295781612476565b9050919050565b60006020820190508181036000830152612977816124dc565b9050919050565b600060208201905081810360008301526129978161251c565b9050919050565b600060208201905081810360008301526129b781612582565b9050919050565b600060208201905081810360008301526129d7816125e8565b9050919050565b600060208201905081810360008301526129f78161264e565b9050919050565b6000608082019050612a1360008301846126b4565b92915050565b6000602082019050612a2e6000830184612718565b92915050565b6000604051905081810181811067ffffffffffffffff82111715612a5b57612a5a612d8f565b5b8060405250919050565b600067ffffffffffffffff821115612a8057612a7f612d8f565b5b601f19601f8301169050602081019050919050565b600081519050919050565b600081519050919050565b600082825260208201905092915050565b600082825260208201905092915050565b600081905092915050565b6000612ae382612bfd565b9150612aee83612bfd565b9250827fffffffffffffffffffffffffffffffffffffffffffffffffffffffffffffffff03821115612b2357612b22612d02565b5b828201905092915050565b6000612b3982612bfd565b9150612b4483612bfd565b925082612b5457612b53612d31565b5b828204905092915050565b6000612b6a82612bfd565b9150612b7583612bfd565b925082821015612b8857612b87612d02565b5b828203905092915050565b6000612b9e82612bdd565b9050919050565b60008115159050919050565b60007fffffffff0000000000000000000000000000000000000000000000000000000082169050919050565b600073ffffffffffffffffffffffffffffffffffffffff82169050919050565b6000819050919050565b600060ff82169050919050565b82818337600083830152505050565b60005b83811015612c41578082015181840152602081019050612c26565b83811115612c50576000848401525b50505050565b60006002820490506001821680612c6e57607f821691505b60208210811415612c8257612c81612d60565b5b50919050565b6000612c9382612bfd565b91507fffffffffffffffffffffffffffffffffffffffffffffffffffffffffffffffff821415612cc657612cc5612d02565b5b600182019050919050565b6000612cdc82612bfd565b9150612ce783612bfd565b925082612cf757612cf6612d31565b5b828206905092915050565b7f4e487b7100000000000000000000000000000000000000000000000000000000600052601160045260246000fd5b7f4e487b7100000000000000000000000000000000000000000000000000000000600052601260045260246000fd5b7f4e487b7100000000000000000000000000000000000000000000000000000000600052602260045260246000fd5b7f4e487b7100000000000000000000000000000000000000000000000000000000600052604160045260246000fd5b6000601f19601f8301169050919050565b612dd881612b93565b8114612de357600080fd5b50565b612def81612ba5565b8114612dfa57600080fd5b50565b612e0681612bb1565b8114612e1157600080fd5b50565b612e1d81612bfd565b8114612e2857600080fd5b50565b612e3481612c07565b8114612e3f57600080fd5b5056fea2646970667358221220528b67e064e730b7697b167ba9bdeaaa39af82ed6f8035d1e8b894f4a7a3c51064736f6c63430008000033",
  "immutableReferences": {},
  "source": "pragma solidity 0.8.0;\n\nimport \"../node_modules/@openzeppelin/contracts/token/ERC721/ERC721.sol\";\nimport \"../node_modules/@openzeppelin/contracts/access/Ownable.sol\";\n\ncontract Token is ERC721, Ownable {\n    struct Pet {\n        uint8 damage; // 0-255\n        uint8 magic;\n        uint256 lastMeal;\n        uint256 endurance; // How long pet can go without food\n    }\n\n    uint256 nextId = 0;\n\n    mapping( uint256 => Pet) private _tokenDetails;\n\n    constructor(string memory name, string memory symbol) ERC721(name, symbol){\n\n    }\n\n    function getTokenDetails(uint256 tokenId) public view returns (Pet memory) {\n        return _tokenDetails[tokenId];\n    }\n\n    function mint(uint8 damage, uint8 magic, uint256 endurance) public onlyOwner {\n        _tokenDetails[nextId] = Pet(damage, magic, block.timestamp, endurance);\n        _safeMint(msg.sender, nextId);\n        nextId++;\n    }\n\n    function feed(uint256 tokenId) public { // New function \"feed\"\n    Pet storage pet = _tokenDetails[nextId];\n        require(pet.lastMeal + pet.endurance > block.timestamp); \n        _tokenDetails[nextId].lastMeal = block.timestamp; // Current Time\n    }\n\n    function _beforeTokenTransfer(address from, address to, uint256 tokenId) internal override {\n        Pet storage pet = _tokenDetails[nextId];\n        require(pet.lastMeal + pet.endurance > block.timestamp); // Can't transfer the pet if it's dead (from hunger)\n    }\n}",
  "sourcePath": "/Users/liam/Documents/Webapps/KeybaseRepos/nft-game/contracts/Token.sol",
  "compiler": {
    "name": "solc",
    "version": "0.8.0+commit.c7dfd78e.Emscripten.clang"
  },
  "schemaVersion": "3.4.1",
  "updatedAt": "2021-06-26T14:25:12.979Z",
  "devdoc": {
    "kind": "dev",
    "methods": {
      "approve(address,uint256)": {
        "details": "See {IERC721-approve}."
      },
      "balanceOf(address)": {
        "details": "See {IERC721-balanceOf}."
      },
      "getApproved(uint256)": {
        "details": "See {IERC721-getApproved}."
      },
      "isApprovedForAll(address,address)": {
        "details": "See {IERC721-isApprovedForAll}."
      },
      "name()": {
        "details": "See {IERC721Metadata-name}."
      },
      "owner()": {
        "details": "Returns the address of the current owner."
      },
      "ownerOf(uint256)": {
        "details": "See {IERC721-ownerOf}."
      },
      "renounceOwnership()": {
        "details": "Leaves the contract without owner. It will not be possible to call `onlyOwner` functions anymore. Can only be called by the current owner. NOTE: Renouncing ownership will leave the contract without an owner, thereby removing any functionality that is only available to the owner."
      },
      "safeTransferFrom(address,address,uint256)": {
        "details": "See {IERC721-safeTransferFrom}."
      },
      "safeTransferFrom(address,address,uint256,bytes)": {
        "details": "See {IERC721-safeTransferFrom}."
      },
      "setApprovalForAll(address,bool)": {
        "details": "See {IERC721-setApprovalForAll}."
      },
      "supportsInterface(bytes4)": {
        "details": "See {IERC165-supportsInterface}."
      },
      "symbol()": {
        "details": "See {IERC721Metadata-symbol}."
      },
      "tokenURI(uint256)": {
        "details": "See {IERC721Metadata-tokenURI}."
      },
      "transferFrom(address,address,uint256)": {
        "details": "See {IERC721-transferFrom}."
      },
      "transferOwnership(address)": {
        "details": "Transfers ownership of the contract to a new account (`newOwner`). Can only be called by the current owner."
      }
    },
    "version": 1
  },
  "userdoc": {
    "kind": "user",
    "methods": {},
    "version": 1
  }
}