{
  "contractName": "Token",
  "abi": [
    {
      "inputs": [
        {
          "internalType": "string",
          "name": "name",
          "type": "string"
        },
        {
          "internalType": "string",
          "name": "symbol",
          "type": "string"
        }
      ],
      "stateMutability": "nonpayable",
      "type": "constructor"
    },
    {
      "anonymous": false,
      "inputs": [
        {
          "indexed": true,
          "internalType": "address",
          "name": "owner",
          "type": "address"
        },
        {
          "indexed": true,
          "internalType": "address",
          "name": "approved",
          "type": "address"
        },
        {
          "indexed": true,
          "internalType": "uint256",
          "name": "tokenId",
          "type": "uint256"
        }
      ],
      "name": "Approval",
      "type": "event"
    },
    {
      "anonymous": false,
      "inputs": [
        {
          "indexed": true,
          "internalType": "address",
          "name": "owner",
          "type": "address"
        },
        {
          "indexed": true,
          "internalType": "address",
          "name": "operator",
          "type": "address"
        },
        {
          "indexed": false,
          "internalType": "bool",
          "name": "approved",
          "type": "bool"
        }
      ],
      "name": "ApprovalForAll",
      "type": "event"
    },
    {
      "anonymous": false,
      "inputs": [
        {
          "indexed": true,
          "internalType": "address",
          "name": "previousOwner",
          "type": "address"
        },
        {
          "indexed": true,
          "internalType": "address",
          "name": "newOwner",
          "type": "address"
        }
      ],
      "name": "OwnershipTransferred",
      "type": "event"
    },
    {
      "anonymous": false,
      "inputs": [
        {
          "indexed": true,
          "internalType": "address",
          "name": "from",
          "type": "address"
        },
        {
          "indexed": true,
          "internalType": "address",
          "name": "to",
          "type": "address"
        },
        {
          "indexed": true,
          "internalType": "uint256",
          "name": "tokenId",
          "type": "uint256"
        }
      ],
      "name": "Transfer",
      "type": "event"
    },
    {
      "inputs": [
        {
          "internalType": "address",
          "name": "to",
          "type": "address"
        },
        {
          "internalType": "uint256",
          "name": "tokenId",
          "type": "uint256"
        }
      ],
      "name": "approve",
      "outputs": [],
      "stateMutability": "nonpayable",
      "type": "function"
    },
    {
      "inputs": [
        {
          "internalType": "address",
          "name": "owner",
          "type": "address"
        }
      ],
      "name": "balanceOf",
      "outputs": [
        {
          "internalType": "uint256",
          "name": "",
          "type": "uint256"
        }
      ],
      "stateMutability": "view",
      "type": "function"
    },
    {
      "inputs": [
        {
          "internalType": "uint256",
          "name": "tokenId",
          "type": "uint256"
        }
      ],
      "name": "getApproved",
      "outputs": [
        {
          "internalType": "address",
          "name": "",
          "type": "address"
        }
      ],
      "stateMutability": "view",
      "type": "function"
    },
    {
      "inputs": [
        {
          "internalType": "address",
          "name": "owner",
          "type": "address"
        },
        {
          "internalType": "address",
          "name": "operator",
          "type": "address"
        }
      ],
      "name": "isApprovedForAll",
      "outputs": [
        {
          "internalType": "bool",
          "name": "",
          "type": "bool"
        }
      ],
      "stateMutability": "view",
      "type": "function"
    },
    {
      "inputs": [],
      "name": "name",
      "outputs": [
        {
          "internalType": "string",
          "name": "",
          "type": "string"
        }
      ],
      "stateMutability": "view",
      "type": "function"
    },
    {
      "inputs": [],
      "name": "owner",
      "outputs": [
        {
          "internalType": "address",
          "name": "",
          "type": "address"
        }
      ],
      "stateMutability": "view",
      "type": "function"
    },
    {
      "inputs": [
        {
          "internalType": "uint256",
          "name": "tokenId",
          "type": "uint256"
        }
      ],
      "name": "ownerOf",
      "outputs": [
        {
          "internalType": "address",
          "name": "",
          "type": "address"
        }
      ],
      "stateMutability": "view",
      "type": "function"
    },
    {
      "inputs": [],
      "name": "renounceOwnership",
      "outputs": [],
      "stateMutability": "nonpayable",
      "type": "function"
    },
    {
      "inputs": [
        {
          "internalType": "address",
          "name": "from",
          "type": "address"
        },
        {
          "internalType": "address",
          "name": "to",
          "type": "address"
        },
        {
          "internalType": "uint256",
          "name": "tokenId",
          "type": "uint256"
        }
      ],
      "name": "safeTransferFrom",
      "outputs": [],
      "stateMutability": "nonpayable",
      "type": "function"
    },
    {
      "inputs": [
        {
          "internalType": "address",
          "name": "from",
          "type": "address"
        },
        {
          "internalType": "address",
          "name": "to",
          "type": "address"
        },
        {
          "internalType": "uint256",
          "name": "tokenId",
          "type": "uint256"
        },
        {
          "internalType": "bytes",
          "name": "_data",
          "type": "bytes"
        }
      ],
      "name": "safeTransferFrom",
      "outputs": [],
      "stateMutability": "nonpayable",
      "type": "function"
    },
    {
      "inputs": [
        {
          "internalType": "address",
          "name": "operator",
          "type": "address"
        },
        {
          "internalType": "bool",
          "name": "approved",
          "type": "bool"
        }
      ],
      "name": "setApprovalForAll",
      "outputs": [],
      "stateMutability": "nonpayable",
      "type": "function"
    },
    {
      "inputs": [
        {
          "internalType": "bytes4",
          "name": "interfaceId",
          "type": "bytes4"
        }
      ],
      "name": "supportsInterface",
      "outputs": [
        {
          "internalType": "bool",
          "name": "",
          "type": "bool"
        }
      ],
      "stateMutability": "view",
      "type": "function"
    },
    {
      "inputs": [],
      "name": "symbol",
      "outputs": [
        {
          "internalType": "string",
          "name": "",
          "type": "string"
        }
      ],
      "stateMutability": "view",
      "type": "function"
    },
    {
      "inputs": [
        {
          "internalType": "uint256",
          "name": "tokenId",
          "type": "uint256"
        }
      ],
      "name": "tokenURI",
      "outputs": [
        {
          "internalType": "string",
          "name": "",
          "type": "string"
        }
      ],
      "stateMutability": "view",
      "type": "function"
    },
    {
      "inputs": [
        {
          "internalType": "address",
          "name": "from",
          "type": "address"
        },
        {
          "internalType": "address",
          "name": "to",
          "type": "address"
        },
        {
          "internalType": "uint256",
          "name": "tokenId",
          "type": "uint256"
        }
      ],
      "name": "transferFrom",
      "outputs": [],
      "stateMutability": "nonpayable",
      "type": "function"
    },
    {
      "inputs": [
        {
          "internalType": "address",
          "name": "newOwner",
          "type": "address"
        }
      ],
      "name": "transferOwnership",
      "outputs": [],
      "stateMutability": "nonpayable",
      "type": "function"
    },
    {
      "inputs": [
        {
          "internalType": "uint8",
          "name": "damage",
          "type": "uint8"
        },
        {
          "internalType": "uint8",
          "name": "magic",
          "type": "uint8"
        },
        {
          "internalType": "uint8",
          "name": "endurance",
          "type": "uint8"
        }
      ],
      "name": "mint",
      "outputs": [],
      "stateMutability": "nonpayable",
      "type": "function"
    },
    {
      "inputs": [
        {
          "internalType": "uint256",
          "name": "tokenId",
          "type": "uint256"
        }
      ],
      "name": "feed",
      "outputs": [],
      "stateMutability": "nonpayable",
      "type": "function"
    }
  ],
  "bytecode": "0x608060405260006007553480156200001657600080fd5b50604051620031123803806200311283398181016040528101906200003c919062000255565b818181600090805190602001906200005692919062000133565b5080600190805190602001906200006f92919062000133565b5050506000620000846200012b60201b60201c565b905080600660006101000a81548173ffffffffffffffffffffffffffffffffffffffff021916908373ffffffffffffffffffffffffffffffffffffffff1602179055508073ffffffffffffffffffffffffffffffffffffffff16600073ffffffffffffffffffffffffffffffffffffffff167f8be0079c531659141344cd1fd0a4f28419497f9722a3daafe3b4186f6b6457e060405160405180910390a3505050620003f9565b600033905090565b828054620001419062000365565b90600052602060002090601f016020900481019282620001655760008555620001b1565b82601f106200018057805160ff1916838001178555620001b1565b82800160010185558215620001b1579182015b82811115620001b057825182559160200191906001019062000193565b5b509050620001c09190620001c4565b5090565b5b80821115620001df576000816000905550600101620001c5565b5090565b6000620001fa620001f484620002fc565b620002c8565b9050828152602081018484840111156200021357600080fd5b620002208482856200032f565b509392505050565b600082601f8301126200023a57600080fd5b81516200024c848260208601620001e3565b91505092915050565b600080604083850312156200026957600080fd5b600083015167ffffffffffffffff8111156200028457600080fd5b620002928582860162000228565b925050602083015167ffffffffffffffff811115620002b057600080fd5b620002be8582860162000228565b9150509250929050565b6000604051905081810181811067ffffffffffffffff82111715620002f257620002f1620003ca565b5b8060405250919050565b600067ffffffffffffffff8211156200031a5762000319620003ca565b5b601f19601f8301169050602081019050919050565b60005b838110156200034f57808201518184015260208101905062000332565b838111156200035f576000848401525b50505050565b600060028204905060018216806200037e57607f821691505b602082108114156200039557620003946200039b565b5b50919050565b7f4e487b7100000000000000000000000000000000000000000000000000000000600052602260045260246000fd5b7f4e487b7100000000000000000000000000000000000000000000000000000000600052604160045260246000fd5b612d0980620004096000396000f3fe608060405234801561001057600080fd5b50600436106101165760003560e01c80638da5cb5b116100a2578063c87b56dd11610071578063c87b56dd146102cb578063e6f12af9146102fb578063e985e9c514610317578063f2fde38b14610347578063f59dfdfb1461036357610116565b80638da5cb5b1461025757806395d89b4114610275578063a22cb46514610293578063b88d4fde146102af57610116565b806323b872dd116100e957806323b872dd146101b557806342842e0e146101d15780636352211e146101ed57806370a082311461021d578063715018a61461024d57610116565b806301ffc9a71461011b57806306fdde031461014b578063081812fc14610169578063095ea7b314610199575b600080fd5b61013560048036038101906101309190611e80565b61037f565b604051610142919061266d565b60405180910390f35b610153610461565b6040516101609190612688565b60405180910390f35b610183600480360381019061017e9190611ed2565b6104f3565b6040516101909190612606565b60405180910390f35b6101b360048036038101906101ae9190611e44565b610578565b005b6101cf60048036038101906101ca9190611d3e565b610690565b005b6101eb60048036038101906101e69190611d3e565b6106f0565b005b61020760048036038101906102029190611ed2565b610710565b6040516102149190612606565b60405180910390f35b61023760048036038101906102329190611cd9565b6107c2565b60405161024491906128aa565b60405180910390f35b61025561087a565b005b61025f6109b7565b60405161026c9190612606565b60405180910390f35b61027d6109e1565b60405161028a9190612688565b60405180910390f35b6102ad60048036038101906102a89190611e08565b610a73565b005b6102c960048036038101906102c49190611d8d565b610bf4565b005b6102e560048036038101906102e09190611ed2565b610c56565b6040516102f29190612688565b60405180910390f35b61031560048036038101906103109190611efb565b610cfd565b005b610331600480360381019061032c9190611d02565b610e3a565b60405161033e919061266d565b60405180910390f35b610361600480360381019061035c9190611cd9565b610ece565b005b61037d60048036038101906103789190611ed2565b61107a565b005b60007f80ac58cd000000000000000000000000000000000000000000000000000000007bffffffffffffffffffffffffffffffffffffffffffffffffffffffff1916827bffffffffffffffffffffffffffffffffffffffffffffffffffffffff1916148061044a57507f5b5e139f000000000000000000000000000000000000000000000000000000007bffffffffffffffffffffffffffffffffffffffffffffffffffffffff1916827bffffffffffffffffffffffffffffffffffffffffffffffffffffffff1916145b8061045a5750610459826110d3565b5b9050919050565b60606000805461047090612ae7565b80601f016020809104026020016040519081016040528092919081815260200182805461049c90612ae7565b80156104e95780601f106104be576101008083540402835291602001916104e9565b820191906000526020600020905b8154815290600101906020018083116104cc57829003601f168201915b5050505050905090565b60006104fe8261113d565b61053d576040517f08c379a0000000000000000000000000000000000000000000000000000000008152600401610534906127ea565b60405180910390fd5b6004600083815260200190815260200160002060009054906101000a900473ffffffffffffffffffffffffffffffffffffffff169050919050565b600061058382610710565b90508073ffffffffffffffffffffffffffffffffffffffff168373ffffffffffffffffffffffffffffffffffffffff1614156105f4576040517f08c379a00000000000000000000000000000000000000000000000000000000081526004016105eb9061286a565b60405180910390fd5b8073ffffffffffffffffffffffffffffffffffffffff166106136111a9565b73ffffffffffffffffffffffffffffffffffffffff16148061064257506106418161063c6111a9565b610e3a565b5b610681576040517f08c379a00000000000000000000000000000000000000000000000000000000081526004016106789061276a565b60405180910390fd5b61068b83836111b1565b505050565b6106a161069b6111a9565b8261126a565b6106e0576040517f08c379a00000000000000000000000000000000000000000000000000000000081526004016106d79061288a565b60405180910390fd5b6106eb838383611348565b505050565b61070b83838360405180602001604052806000815250610bf4565b505050565b6000806002600084815260200190815260200160002060009054906101000a900473ffffffffffffffffffffffffffffffffffffffff169050600073ffffffffffffffffffffffffffffffffffffffff168173ffffffffffffffffffffffffffffffffffffffff1614156107b9576040517f08c379a00000000000000000000000000000000000000000000000000000000081526004016107b0906127aa565b60405180910390fd5b80915050919050565b60008073ffffffffffffffffffffffffffffffffffffffff168273ffffffffffffffffffffffffffffffffffffffff161415610833576040517f08c379a000000000000000000000000000000000000000000000000000000000815260040161082a9061278a565b60405180910390fd5b600360008373ffffffffffffffffffffffffffffffffffffffff1673ffffffffffffffffffffffffffffffffffffffff168152602001908152602001600020549050919050565b6108826111a9565b73ffffffffffffffffffffffffffffffffffffffff166108a06109b7565b73ffffffffffffffffffffffffffffffffffffffff16146108f6576040517f08c379a00000000000000000000000000000000000000000000000000000000081526004016108ed9061280a565b60405180910390fd5b600073ffffffffffffffffffffffffffffffffffffffff16600660009054906101000a900473ffffffffffffffffffffffffffffffffffffffff1673ffffffffffffffffffffffffffffffffffffffff167f8be0079c531659141344cd1fd0a4f28419497f9722a3daafe3b4186f6b6457e060405160405180910390a36000600660006101000a81548173ffffffffffffffffffffffffffffffffffffffff021916908373ffffffffffffffffffffffffffffffffffffffff160217905550565b6000600660009054906101000a900473ffffffffffffffffffffffffffffffffffffffff16905090565b6060600180546109f090612ae7565b80601f0160208091040260200160405190810160405280929190818152602001828054610a1c90612ae7565b8015610a695780601f10610a3e57610100808354040283529160200191610a69565b820191906000526020600020905b815481529060010190602001808311610a4c57829003601f168201915b5050505050905090565b610a7b6111a9565b73ffffffffffffffffffffffffffffffffffffffff168273ffffffffffffffffffffffffffffffffffffffff161415610ae9576040517f08c379a0000000000000000000000000000000000000000000000000000000008152600401610ae09061272a565b60405180910390fd5b8060056000610af66111a9565b73ffffffffffffffffffffffffffffffffffffffff1673ffffffffffffffffffffffffffffffffffffffff16815260200190815260200160002060008473ffffffffffffffffffffffffffffffffffffffff1673ffffffffffffffffffffffffffffffffffffffff16815260200190815260200160002060006101000a81548160ff0219169083151502179055508173ffffffffffffffffffffffffffffffffffffffff16610ba36111a9565b73ffffffffffffffffffffffffffffffffffffffff167f17307eab39ab6107e8899845ad3d59bd9653f200f220920489ca2b5937696c3183604051610be8919061266d565b60405180910390a35050565b610c05610bff6111a9565b8361126a565b610c44576040517f08c379a0000000000000000000000000000000000000000000000000000000008152600401610c3b9061288a565b60405180910390fd5b610c50848484846115a4565b50505050565b6060610c618261113d565b610ca0576040517f08c379a0000000000000000000000000000000000000000000000000000000008152600401610c979061284a565b60405180910390fd5b6000610caa611600565b90506000815111610cca5760405180602001604052806000815250610cf5565b80610cd484611617565b604051602001610ce59291906125e2565b6040516020818303038152906040525b915050919050565b610d056111a9565b73ffffffffffffffffffffffffffffffffffffffff16610d236109b7565b73ffffffffffffffffffffffffffffffffffffffff1614610d79576040517f08c379a0000000000000000000000000000000000000000000000000000000008152600401610d709061280a565b60405180910390fd5b60405180608001604052808460ff1681526020018360ff1681526020014281526020018260ff1681525060086000600754815260200190815260200160002060008201518160000160006101000a81548160ff021916908360ff16021790555060208201518160000160016101000a81548160ff021916908360ff1602179055506040820151816001015560608201518160020155905050610e1d336007546117c4565b60076000815480929190610e3090612b19565b9190505550505050565b6000600560008473ffffffffffffffffffffffffffffffffffffffff1673ffffffffffffffffffffffffffffffffffffffff16815260200190815260200160002060008373ffffffffffffffffffffffffffffffffffffffff1673ffffffffffffffffffffffffffffffffffffffff16815260200190815260200160002060009054906101000a900460ff16905092915050565b610ed66111a9565b73ffffffffffffffffffffffffffffffffffffffff16610ef46109b7565b73ffffffffffffffffffffffffffffffffffffffff1614610f4a576040517f08c379a0000000000000000000000000000000000000000000000000000000008152600401610f419061280a565b60405180910390fd5b600073ffffffffffffffffffffffffffffffffffffffff168173ffffffffffffffffffffffffffffffffffffffff161415610fba576040517f08c379a0000000000000000000000000000000000000000000000000000000008152600401610fb1906126ca565b60405180910390fd5b8073ffffffffffffffffffffffffffffffffffffffff16600660009054906101000a900473ffffffffffffffffffffffffffffffffffffffff1673ffffffffffffffffffffffffffffffffffffffff167f8be0079c531659141344cd1fd0a4f28419497f9722a3daafe3b4186f6b6457e060405160405180910390a380600660006101000a81548173ffffffffffffffffffffffffffffffffffffffff021916908373ffffffffffffffffffffffffffffffffffffffff16021790555050565b6000600860006007548152602001908152602001600020905042816002015482600101546110a89190612969565b116110b257600080fd5b42600860006007548152602001908152602001600020600101819055505050565b60007f01ffc9a7000000000000000000000000000000000000000000000000000000007bffffffffffffffffffffffffffffffffffffffffffffffffffffffff1916827bffffffffffffffffffffffffffffffffffffffffffffffffffffffff1916149050919050565b60008073ffffffffffffffffffffffffffffffffffffffff166002600084815260200190815260200160002060009054906101000a900473ffffffffffffffffffffffffffffffffffffffff1673ffffffffffffffffffffffffffffffffffffffff1614159050919050565b600033905090565b816004600083815260200190815260200160002060006101000a81548173ffffffffffffffffffffffffffffffffffffffff021916908373ffffffffffffffffffffffffffffffffffffffff160217905550808273ffffffffffffffffffffffffffffffffffffffff1661122483610710565b73ffffffffffffffffffffffffffffffffffffffff167f8c5be1e5ebec7d5bd14f71427d1e84f3dd0314c0f7b2291e5b200ac8c7c3b92560405160405180910390a45050565b60006112758261113d565b6112b4576040517f08c379a00000000000000000000000000000000000000000000000000000000081526004016112ab9061274a565b60405180910390fd5b60006112bf83610710565b90508073ffffffffffffffffffffffffffffffffffffffff168473ffffffffffffffffffffffffffffffffffffffff16148061132e57508373ffffffffffffffffffffffffffffffffffffffff16611316846104f3565b73ffffffffffffffffffffffffffffffffffffffff16145b8061133f575061133e8185610e3a565b5b91505092915050565b8273ffffffffffffffffffffffffffffffffffffffff1661136882610710565b73ffffffffffffffffffffffffffffffffffffffff16146113be576040517f08c379a00000000000000000000000000000000000000000000000000000000081526004016113b59061282a565b60405180910390fd5b600073ffffffffffffffffffffffffffffffffffffffff168273ffffffffffffffffffffffffffffffffffffffff16141561142e576040517f08c379a00000000000000000000000000000000000000000000000000000000081526004016114259061270a565b60405180910390fd5b6114398383836117e2565b6114446000826111b1565b6001600360008573ffffffffffffffffffffffffffffffffffffffff1673ffffffffffffffffffffffffffffffffffffffff168152602001908152602001600020600082825461149491906129f0565b925050819055506001600360008473ffffffffffffffffffffffffffffffffffffffff1673ffffffffffffffffffffffffffffffffffffffff16815260200190815260200160002060008282546114eb9190612969565b92505081905550816002600083815260200190815260200160002060006101000a81548173ffffffffffffffffffffffffffffffffffffffff021916908373ffffffffffffffffffffffffffffffffffffffff160217905550808273ffffffffffffffffffffffffffffffffffffffff168473ffffffffffffffffffffffffffffffffffffffff167fddf252ad1be2c89b69c2b068fc378daa952ba7f163c4a11628f55a4df523b3ef60405160405180910390a4505050565b6115af848484611348565b6115bb84848484611820565b6115fa576040517f08c379a00000000000000000000000000000000000000000000000000000000081526004016115f1906126aa565b60405180910390fd5b50505050565b606060405180602001604052806000815250905090565b6060600082141561165f576040518060400160405280600181526020017f300000000000000000000000000000000000000000000000000000000000000081525090506117bf565b600082905060005b6000821461169157808061167a90612b19565b915050600a8261168a91906129bf565b9150611667565b60008167ffffffffffffffff8111156116d3577f4e487b7100000000000000000000000000000000000000000000000000000000600052604160045260246000fd5b6040519080825280601f01601f1916602001820160405280156117055781602001600182028036833780820191505090505b5090505b600085146117b85760018261171e91906129f0565b9150600a8561172d9190612b62565b60306117399190612969565b60f81b818381518110611775577f4e487b7100000000000000000000000000000000000000000000000000000000600052603260045260246000fd5b60200101907effffffffffffffffffffffffffffffffffffffffffffffffffffffffffffff1916908160001a905350600a856117b191906129bf565b9450611709565b8093505050505b919050565b6117de8282604051806020016040528060008152506119b7565b5050565b6000600860006007548152602001908152602001600020905042816002015482600101546118109190612969565b1161181a57600080fd5b50505050565b60006118418473ffffffffffffffffffffffffffffffffffffffff16611a12565b156119aa578373ffffffffffffffffffffffffffffffffffffffff1663150b7a0261186a6111a9565b8786866040518563ffffffff1660e01b815260040161188c9493929190612621565b602060405180830381600087803b1580156118a657600080fd5b505af19250505080156118d757506040513d601f19601f820116820180604052508101906118d49190611ea9565b60015b61195a573d8060008114611907576040519150601f19603f3d011682016040523d82523d6000602084013e61190c565b606091505b50600081511415611952576040517f08c379a0000000000000000000000000000000000000000000000000000000008152600401611949906126aa565b60405180910390fd5b805181602001fd5b63150b7a0260e01b7bffffffffffffffffffffffffffffffffffffffffffffffffffffffff1916817bffffffffffffffffffffffffffffffffffffffffffffffffffffffff1916149150506119af565b600190505b949350505050565b6119c18383611a25565b6119ce6000848484611820565b611a0d576040517f08c379a0000000000000000000000000000000000000000000000000000000008152600401611a04906126aa565b60405180910390fd5b505050565b600080823b905060008111915050919050565b600073ffffffffffffffffffffffffffffffffffffffff168273ffffffffffffffffffffffffffffffffffffffff161415611a95576040517f08c379a0000000000000000000000000000000000000000000000000000000008152600401611a8c906127ca565b60405180910390fd5b611a9e8161113d565b15611ade576040517f08c379a0000000000000000000000000000000000000000000000000000000008152600401611ad5906126ea565b60405180910390fd5b611aea600083836117e2565b6001600360008473ffffffffffffffffffffffffffffffffffffffff1673ffffffffffffffffffffffffffffffffffffffff1681526020019081526020016000206000828254611b3a9190612969565b92505081905550816002600083815260200190815260200160002060006101000a81548173ffffffffffffffffffffffffffffffffffffffff021916908373ffffffffffffffffffffffffffffffffffffffff160217905550808273ffffffffffffffffffffffffffffffffffffffff16600073ffffffffffffffffffffffffffffffffffffffff167fddf252ad1be2c89b69c2b068fc378daa952ba7f163c4a11628f55a4df523b3ef60405160405180910390a45050565b6000611c06611c01846128f6565b6128c5565b905082815260208101848484011115611c1e57600080fd5b611c29848285612aa5565b509392505050565b600081359050611c4081612c60565b92915050565b600081359050611c5581612c77565b92915050565b600081359050611c6a81612c8e565b92915050565b600081519050611c7f81612c8e565b92915050565b600082601f830112611c9657600080fd5b8135611ca6848260208601611bf3565b91505092915050565b600081359050611cbe81612ca5565b92915050565b600081359050611cd381612cbc565b92915050565b600060208284031215611ceb57600080fd5b6000611cf984828501611c31565b91505092915050565b60008060408385031215611d1557600080fd5b6000611d2385828601611c31565b9250506020611d3485828601611c31565b9150509250929050565b600080600060608486031215611d5357600080fd5b6000611d6186828701611c31565b9350506020611d7286828701611c31565b9250506040611d8386828701611caf565b9150509250925092565b60008060008060808587031215611da357600080fd5b6000611db187828801611c31565b9450506020611dc287828801611c31565b9350506040611dd387828801611caf565b925050606085013567ffffffffffffffff811115611df057600080fd5b611dfc87828801611c85565b91505092959194509250565b60008060408385031215611e1b57600080fd5b6000611e2985828601611c31565b9250506020611e3a85828601611c46565b9150509250929050565b60008060408385031215611e5757600080fd5b6000611e6585828601611c31565b9250506020611e7685828601611caf565b9150509250929050565b600060208284031215611e9257600080fd5b6000611ea084828501611c5b565b91505092915050565b600060208284031215611ebb57600080fd5b6000611ec984828501611c70565b91505092915050565b600060208284031215611ee457600080fd5b6000611ef284828501611caf565b91505092915050565b600080600060608486031215611f1057600080fd5b6000611f1e86828701611cc4565b9350506020611f2f86828701611cc4565b9250506040611f4086828701611cc4565b9150509250925092565b611f5381612a24565b82525050565b611f6281612a36565b82525050565b6000611f7382612926565b611f7d818561293c565b9350611f8d818560208601612ab4565b611f9681612c4f565b840191505092915050565b6000611fac82612931565b611fb6818561294d565b9350611fc6818560208601612ab4565b611fcf81612c4f565b840191505092915050565b6000611fe582612931565b611fef818561295e565b9350611fff818560208601612ab4565b80840191505092915050565b600061201860328361294d565b91507f4552433732313a207472616e7366657220746f206e6f6e20455243373231526560008301527f63656976657220696d706c656d656e74657200000000000000000000000000006020830152604082019050919050565b600061207e60268361294d565b91507f4f776e61626c653a206e6577206f776e657220697320746865207a65726f206160008301527f64647265737300000000000000000000000000000000000000000000000000006020830152604082019050919050565b60006120e4601c8361294d565b91507f4552433732313a20746f6b656e20616c7265616479206d696e746564000000006000830152602082019050919050565b600061212460248361294d565b91507f4552433732313a207472616e7366657220746f20746865207a65726f2061646460008301527f72657373000000000000000000000000000000000000000000000000000000006020830152604082019050919050565b600061218a60198361294d565b91507f4552433732313a20617070726f766520746f2063616c6c6572000000000000006000830152602082019050919050565b60006121ca602c8361294d565b91507f4552433732313a206f70657261746f7220717565727920666f72206e6f6e657860008301527f697374656e7420746f6b656e00000000000000000000000000000000000000006020830152604082019050919050565b600061223060388361294d565b91507f4552433732313a20617070726f76652063616c6c6572206973206e6f74206f7760008301527f6e6572206e6f7220617070726f76656420666f7220616c6c00000000000000006020830152604082019050919050565b6000612296602a8361294d565b91507f4552433732313a2062616c616e636520717565727920666f7220746865207a6560008301527f726f2061646472657373000000000000000000000000000000000000000000006020830152604082019050919050565b60006122fc60298361294d565b91507f4552433732313a206f776e657220717565727920666f72206e6f6e657869737460008301527f656e7420746f6b656e00000000000000000000000000000000000000000000006020830152604082019050919050565b600061236260208361294d565b91507f4552433732313a206d696e7420746f20746865207a65726f20616464726573736000830152602082019050919050565b60006123a2602c8361294d565b91507f4552433732313a20617070726f76656420717565727920666f72206e6f6e657860008301527f697374656e7420746f6b656e00000000000000000000000000000000000000006020830152604082019050919050565b600061240860208361294d565b91507f4f776e61626c653a2063616c6c6572206973206e6f7420746865206f776e65726000830152602082019050919050565b600061244860298361294d565b91507f4552433732313a207472616e73666572206f6620746f6b656e2074686174206960008301527f73206e6f74206f776e00000000000000000000000000000000000000000000006020830152604082019050919050565b60006124ae602f8361294d565b91507f4552433732314d657461646174613a2055524920717565727920666f72206e6f60008301527f6e6578697374656e7420746f6b656e00000000000000000000000000000000006020830152604082019050919050565b600061251460218361294d565b91507f4552433732313a20617070726f76616c20746f2063757272656e74206f776e6560008301527f72000000000000000000000000000000000000000000000000000000000000006020830152604082019050919050565b600061257a60318361294d565b91507f4552433732313a207472616e736665722063616c6c6572206973206e6f74206f60008301527f776e6572206e6f7220617070726f7665640000000000000000000000000000006020830152604082019050919050565b6125dc81612a8e565b82525050565b60006125ee8285611fda565b91506125fa8284611fda565b91508190509392505050565b600060208201905061261b6000830184611f4a565b92915050565b60006080820190506126366000830187611f4a565b6126436020830186611f4a565b61265060408301856125d3565b81810360608301526126628184611f68565b905095945050505050565b60006020820190506126826000830184611f59565b92915050565b600060208201905081810360008301526126a28184611fa1565b905092915050565b600060208201905081810360008301526126c38161200b565b9050919050565b600060208201905081810360008301526126e381612071565b9050919050565b60006020820190508181036000830152612703816120d7565b9050919050565b6000602082019050818103600083015261272381612117565b9050919050565b600060208201905081810360008301526127438161217d565b9050919050565b60006020820190508181036000830152612763816121bd565b9050919050565b6000602082019050818103600083015261278381612223565b9050919050565b600060208201905081810360008301526127a381612289565b9050919050565b600060208201905081810360008301526127c3816122ef565b9050919050565b600060208201905081810360008301526127e381612355565b9050919050565b6000602082019050818103600083015261280381612395565b9050919050565b60006020820190508181036000830152612823816123fb565b9050919050565b600060208201905081810360008301526128438161243b565b9050919050565b60006020820190508181036000830152612863816124a1565b9050919050565b6000602082019050818103600083015261288381612507565b9050919050565b600060208201905081810360008301526128a38161256d565b9050919050565b60006020820190506128bf60008301846125d3565b92915050565b6000604051905081810181811067ffffffffffffffff821117156128ec576128eb612c20565b5b8060405250919050565b600067ffffffffffffffff82111561291157612910612c20565b5b601f19601f8301169050602081019050919050565b600081519050919050565b600081519050919050565b600082825260208201905092915050565b600082825260208201905092915050565b600081905092915050565b600061297482612a8e565b915061297f83612a8e565b9250827fffffffffffffffffffffffffffffffffffffffffffffffffffffffffffffffff038211156129b4576129b3612b93565b5b828201905092915050565b60006129ca82612a8e565b91506129d583612a8e565b9250826129e5576129e4612bc2565b5b828204905092915050565b60006129fb82612a8e565b9150612a0683612a8e565b925082821015612a1957612a18612b93565b5b828203905092915050565b6000612a2f82612a6e565b9050919050565b60008115159050919050565b60007fffffffff0000000000000000000000000000000000000000000000000000000082169050919050565b600073ffffffffffffffffffffffffffffffffffffffff82169050919050565b6000819050919050565b600060ff82169050919050565b82818337600083830152505050565b60005b83811015612ad2578082015181840152602081019050612ab7565b83811115612ae1576000848401525b50505050565b60006002820490506001821680612aff57607f821691505b60208210811415612b1357612b12612bf1565b5b50919050565b6000612b2482612a8e565b91507fffffffffffffffffffffffffffffffffffffffffffffffffffffffffffffffff821415612b5757612b56612b93565b5b600182019050919050565b6000612b6d82612a8e565b9150612b7883612a8e565b925082612b8857612b87612bc2565b5b828206905092915050565b7f4e487b7100000000000000000000000000000000000000000000000000000000600052601160045260246000fd5b7f4e487b7100000000000000000000000000000000000000000000000000000000600052601260045260246000fd5b7f4e487b7100000000000000000000000000000000000000000000000000000000600052602260045260246000fd5b7f4e487b7100000000000000000000000000000000000000000000000000000000600052604160045260246000fd5b6000601f19601f8301169050919050565b612c6981612a24565b8114612c7457600080fd5b50565b612c8081612a36565b8114612c8b57600080fd5b50565b612c9781612a42565b8114612ca257600080fd5b50565b612cae81612a8e565b8114612cb957600080fd5b50565b612cc581612a98565b8114612cd057600080fd5b5056fea264697066735822122003148d6056a9d68398e21e8fd27c7142af8f183c9df723bc1d517ae688236fe864736f6c63430008000033",
  "immutableReferences": {},
  "source": "pragma solidity 0.8.0;\n\nimport \"../node_modules/@openzeppelin/contracts/token/ERC721/ERC721.sol\";\nimport \"../node_modules/@openzeppelin/contracts/access/Ownable.sol\";\n\ncontract Token is ERC721, Ownable {\n    struct Pet {\n        uint8 damage; // 0-255\n        uint8 magic;\n        uint256 lastMeal;\n        uint256 endurance; // How long pet can go without food\n    }\n\n    uint256 nextId = 0;\n\n    mapping( uint256 => Pet) private _tokenDetails;\n\n    constructor(string memory name, string memory symbol) ERC721(name, symbol){\n\n    }\n\n    function mint(uint8 damage, uint8 magic, uint8 endurance) public onlyOwner {\n        _tokenDetails[nextId] = Pet(damage, magic, block.timestamp, endurance);\n        _safeMint(msg.sender, nextId);\n        nextId++;\n    }\n\n    function feed(uint256 tokenId) public { // New function \"feed\"\n    Pet storage pet = _tokenDetails[nextId];\n        require(pet.lastMeal + pet.endurance > block.timestamp); \n        _tokenDetails[nextId].lastMeal = block.timestamp; // Current Time\n    }\n\n    function _beforeTokenTransfer(address from, address to, uint256 tokenId) internal override {\n        Pet storage pet = _tokenDetails[nextId];\n        require(pet.lastMeal + pet.endurance > block.timestamp); // Can't transfer the pet if it's dead (from hunger)\n    }\n}",
  "sourcePath": "/Users/liam/Documents/Webapps/KeybaseRepos/nft-game/contracts/Token.sol",
  "compiler": {
    "name": "solc",
    "version": "0.8.0+commit.c7dfd78e.Emscripten.clang"
  },
  "schemaVersion": "3.4.1",
  "updatedAt": "2021-06-26T09:38:08.479Z",
  "devdoc": {
    "kind": "dev",
    "methods": {
      "approve(address,uint256)": {
        "details": "See {IERC721-approve}."
      },
      "balanceOf(address)": {
        "details": "See {IERC721-balanceOf}."
      },
      "getApproved(uint256)": {
        "details": "See {IERC721-getApproved}."
      },
      "isApprovedForAll(address,address)": {
        "details": "See {IERC721-isApprovedForAll}."
      },
      "name()": {
        "details": "See {IERC721Metadata-name}."
      },
      "owner()": {
        "details": "Returns the address of the current owner."
      },
      "ownerOf(uint256)": {
        "details": "See {IERC721-ownerOf}."
      },
      "renounceOwnership()": {
        "details": "Leaves the contract without owner. It will not be possible to call `onlyOwner` functions anymore. Can only be called by the current owner. NOTE: Renouncing ownership will leave the contract without an owner, thereby removing any functionality that is only available to the owner."
      },
      "safeTransferFrom(address,address,uint256)": {
        "details": "See {IERC721-safeTransferFrom}."
      },
      "safeTransferFrom(address,address,uint256,bytes)": {
        "details": "See {IERC721-safeTransferFrom}."
      },
      "setApprovalForAll(address,bool)": {
        "details": "See {IERC721-setApprovalForAll}."
      },
      "supportsInterface(bytes4)": {
        "details": "See {IERC165-supportsInterface}."
      },
      "symbol()": {
        "details": "See {IERC721Metadata-symbol}."
      },
      "tokenURI(uint256)": {
        "details": "See {IERC721Metadata-tokenURI}."
      },
      "transferFrom(address,address,uint256)": {
        "details": "See {IERC721-transferFrom}."
      },
      "transferOwnership(address)": {
        "details": "Transfers ownership of the contract to a new account (`newOwner`). Can only be called by the current owner."
      }
    },
    "version": 1
  },
  "userdoc": {
    "kind": "user",
    "methods": {},
    "version": 1
  }
}